{
  "_format": "hh-sol-artifact-1",
  "contractName": "EntryPoint",
  "sourceName": "contracts/core/EntryPoint.sol",
  "abi": [
    {
      "inputs": [
        {
          "internalType": "uint256",
          "name": "preOpGas",
          "type": "uint256"
        },
        {
          "internalType": "uint256",
          "name": "paid",
          "type": "uint256"
        },
        {
          "internalType": "uint64",
          "name": "validAfter",
          "type": "uint64"
        },
        {
          "internalType": "uint64",
          "name": "validBefore",
          "type": "uint64"
        },
        {
          "internalType": "bool",
          "name": "targetSuccess",
          "type": "bool"
        },
        {
          "internalType": "bytes",
          "name": "targetResult",
          "type": "bytes"
        }
      ],
      "name": "ExecutionResult",
      "type": "error"
    },
    {
      "inputs": [
        {
          "internalType": "uint256",
          "name": "opIndex",
          "type": "uint256"
        },
        {
          "internalType": "address",
          "name": "paymaster",
          "type": "address"
        },
        {
          "internalType": "string",
          "name": "reason",
          "type": "string"
        }
      ],
      "name": "FailedOp",
      "type": "error"
    },
    {
      "inputs": [
        {
          "internalType": "address",
          "name": "sender",
          "type": "address"
        }
      ],
      "name": "SenderAddressResult",
      "type": "error"
    },
    {
      "inputs": [
        {
          "internalType": "address",
          "name": "aggregator",
          "type": "address"
        }
      ],
      "name": "SignatureValidationFailed",
      "type": "error"
    },
    {
      "inputs": [
        {
          "components": [
            {
              "internalType": "uint256",
              "name": "preOpGas",
              "type": "uint256"
            },
            {
              "internalType": "uint256",
              "name": "prefund",
              "type": "uint256"
            },
            {
              "internalType": "bool",
              "name": "sigFailed",
              "type": "bool"
            },
            {
              "internalType": "uint64",
              "name": "validAfter",
              "type": "uint64"
            },
            {
              "internalType": "uint64",
              "name": "validUntil",
              "type": "uint64"
            },
            {
              "internalType": "bytes",
              "name": "paymasterContext",
              "type": "bytes"
            }
          ],
          "internalType": "struct IEntryPoint.ReturnInfo",
          "name": "returnInfo",
          "type": "tuple"
        },
        {
          "components": [
            {
              "internalType": "uint256",
              "name": "stake",
              "type": "uint256"
            },
            {
              "internalType": "uint256",
              "name": "unstakeDelaySec",
              "type": "uint256"
            }
          ],
          "internalType": "struct IStakeManager.StakeInfo",
          "name": "senderInfo",
          "type": "tuple"
        },
        {
          "components": [
            {
              "internalType": "uint256",
              "name": "stake",
              "type": "uint256"
            },
            {
              "internalType": "uint256",
              "name": "unstakeDelaySec",
              "type": "uint256"
            }
          ],
          "internalType": "struct IStakeManager.StakeInfo",
          "name": "factoryInfo",
          "type": "tuple"
        },
        {
          "components": [
            {
              "internalType": "uint256",
              "name": "stake",
              "type": "uint256"
            },
            {
              "internalType": "uint256",
              "name": "unstakeDelaySec",
              "type": "uint256"
            }
          ],
          "internalType": "struct IStakeManager.StakeInfo",
          "name": "paymasterInfo",
          "type": "tuple"
        }
      ],
      "name": "ValidationResult",
      "type": "error"
    },
    {
      "inputs": [
        {
          "components": [
            {
              "internalType": "uint256",
              "name": "preOpGas",
              "type": "uint256"
            },
            {
              "internalType": "uint256",
              "name": "prefund",
              "type": "uint256"
            },
            {
              "internalType": "bool",
              "name": "sigFailed",
              "type": "bool"
            },
            {
              "internalType": "uint64",
              "name": "validAfter",
              "type": "uint64"
            },
            {
              "internalType": "uint64",
              "name": "validUntil",
              "type": "uint64"
            },
            {
              "internalType": "bytes",
              "name": "paymasterContext",
              "type": "bytes"
            }
          ],
          "internalType": "struct IEntryPoint.ReturnInfo",
          "name": "returnInfo",
          "type": "tuple"
        },
        {
          "components": [
            {
              "internalType": "uint256",
              "name": "stake",
              "type": "uint256"
            },
            {
              "internalType": "uint256",
              "name": "unstakeDelaySec",
              "type": "uint256"
            }
          ],
          "internalType": "struct IStakeManager.StakeInfo",
          "name": "senderInfo",
          "type": "tuple"
        },
        {
          "components": [
            {
              "internalType": "uint256",
              "name": "stake",
              "type": "uint256"
            },
            {
              "internalType": "uint256",
              "name": "unstakeDelaySec",
              "type": "uint256"
            }
          ],
          "internalType": "struct IStakeManager.StakeInfo",
          "name": "factoryInfo",
          "type": "tuple"
        },
        {
          "components": [
            {
              "internalType": "uint256",
              "name": "stake",
              "type": "uint256"
            },
            {
              "internalType": "uint256",
              "name": "unstakeDelaySec",
              "type": "uint256"
            }
          ],
          "internalType": "struct IStakeManager.StakeInfo",
          "name": "paymasterInfo",
          "type": "tuple"
        },
        {
          "components": [
            {
              "internalType": "address",
              "name": "actualAggregator",
              "type": "address"
            },
            {
              "components": [
                {
                  "internalType": "uint256",
                  "name": "stake",
                  "type": "uint256"
                },
                {
                  "internalType": "uint256",
                  "name": "unstakeDelaySec",
                  "type": "uint256"
                }
              ],
              "internalType": "struct IStakeManager.StakeInfo",
              "name": "stakeInfo",
              "type": "tuple"
            }
          ],
          "internalType": "struct IEntryPoint.AggregatorStakeInfo",
          "name": "aggregatorInfo",
          "type": "tuple"
        }
      ],
      "name": "ValidationResultWithAggregation",
      "type": "error"
    },
    {
      "anonymous": false,
      "inputs": [
        {
          "indexed": true,
          "internalType": "bytes32",
          "name": "userOpHash",
          "type": "bytes32"
        },
        {
          "indexed": true,
          "internalType": "address",
          "name": "sender",
          "type": "address"
        },
        {
          "indexed": false,
          "internalType": "address",
          "name": "factory",
          "type": "address"
        },
        {
          "indexed": false,
          "internalType": "address",
          "name": "paymaster",
          "type": "address"
        }
      ],
      "name": "AccountDeployed",
      "type": "event"
    },
    {
      "anonymous": false,
      "inputs": [
        {
          "indexed": true,
          "internalType": "address",
          "name": "account",
          "type": "address"
        },
        {
          "indexed": false,
          "internalType": "uint256",
          "name": "totalDeposit",
          "type": "uint256"
        }
      ],
      "name": "Deposited",
      "type": "event"
    },
    {
      "anonymous": false,
      "inputs": [
        {
          "indexed": false,
          "internalType": "address",
          "name": "aggregator",
          "type": "address"
        }
      ],
      "name": "SignatureAggregatorChanged",
      "type": "event"
    },
    {
      "anonymous": false,
      "inputs": [
        {
          "indexed": true,
          "internalType": "address",
          "name": "account",
          "type": "address"
        },
        {
          "indexed": false,
          "internalType": "uint256",
          "name": "totalStaked",
          "type": "uint256"
        },
        {
          "indexed": false,
          "internalType": "uint256",
          "name": "withdrawTime",
          "type": "uint256"
        }
      ],
      "name": "StakeLocked",
      "type": "event"
    },
    {
      "anonymous": false,
      "inputs": [
        {
          "indexed": true,
          "internalType": "address",
          "name": "account",
          "type": "address"
        },
        {
          "indexed": false,
          "internalType": "uint256",
          "name": "withdrawTime",
          "type": "uint256"
        }
      ],
      "name": "StakeUnlocked",
      "type": "event"
    },
    {
      "anonymous": false,
      "inputs": [
        {
          "indexed": true,
          "internalType": "address",
          "name": "account",
          "type": "address"
        },
        {
          "indexed": false,
          "internalType": "address",
          "name": "withdrawAddress",
          "type": "address"
        },
        {
          "indexed": false,
          "internalType": "uint256",
          "name": "amount",
          "type": "uint256"
        }
      ],
      "name": "StakeWithdrawn",
      "type": "event"
    },
    {
      "anonymous": false,
      "inputs": [
        {
          "indexed": true,
          "internalType": "bytes32",
          "name": "userOpHash",
          "type": "bytes32"
        },
        {
          "indexed": true,
          "internalType": "address",
          "name": "sender",
          "type": "address"
        },
        {
          "indexed": true,
          "internalType": "address",
          "name": "paymaster",
          "type": "address"
        },
        {
          "indexed": false,
          "internalType": "uint256",
          "name": "nonce",
          "type": "uint256"
        },
        {
          "indexed": false,
          "internalType": "bool",
          "name": "success",
          "type": "bool"
        },
        {
          "indexed": false,
          "internalType": "uint256",
          "name": "actualGasCost",
          "type": "uint256"
        },
        {
          "indexed": false,
          "internalType": "uint256",
          "name": "actualGasUsed",
          "type": "uint256"
        }
      ],
      "name": "UserOperationEvent",
      "type": "event"
    },
    {
      "anonymous": false,
      "inputs": [
        {
          "indexed": true,
          "internalType": "bytes32",
          "name": "userOpHash",
          "type": "bytes32"
        },
        {
          "indexed": true,
          "internalType": "address",
          "name": "sender",
          "type": "address"
        },
        {
          "indexed": false,
          "internalType": "uint256",
          "name": "nonce",
          "type": "uint256"
        },
        {
          "indexed": false,
          "internalType": "bytes",
          "name": "revertReason",
          "type": "bytes"
        }
      ],
      "name": "UserOperationRevertReason",
      "type": "event"
    },
    {
      "anonymous": false,
      "inputs": [
        {
          "indexed": true,
          "internalType": "address",
          "name": "account",
          "type": "address"
        },
        {
          "indexed": false,
          "internalType": "address",
          "name": "withdrawAddress",
          "type": "address"
        },
        {
          "indexed": false,
          "internalType": "uint256",
          "name": "amount",
          "type": "uint256"
        }
      ],
      "name": "Withdrawn",
      "type": "event"
    },
    {
      "inputs": [],
      "name": "SIG_VALIDATION_FAILED",
      "outputs": [
        {
          "internalType": "uint256",
          "name": "",
          "type": "uint256"
        }
      ],
      "stateMutability": "view",
      "type": "function"
    },
    {
      "inputs": [
        {
          "internalType": "address",
          "name": "sender",
          "type": "address"
        },
        {
          "internalType": "address",
          "name": "paymaster",
          "type": "address"
        }
      ],
      "name": "_simulateFindAggregator",
      "outputs": [],
      "stateMutability": "view",
      "type": "function"
    },
    {
      "inputs": [
        {
          "internalType": "uint32",
          "name": "_unstakeDelaySec",
          "type": "uint32"
        }
      ],
      "name": "addStake",
      "outputs": [],
      "stateMutability": "payable",
      "type": "function"
    },
    {
      "inputs": [
        {
          "internalType": "address",
          "name": "account",
          "type": "address"
        }
      ],
      "name": "balanceOf",
      "outputs": [
        {
          "internalType": "uint256",
          "name": "",
          "type": "uint256"
        }
      ],
      "stateMutability": "view",
      "type": "function"
    },
    {
      "inputs": [
        {
          "internalType": "address",
          "name": "account",
          "type": "address"
        }
      ],
      "name": "depositTo",
      "outputs": [],
      "stateMutability": "payable",
      "type": "function"
    },
    {
      "inputs": [
        {
          "internalType": "address",
          "name": "",
          "type": "address"
        }
      ],
      "name": "deposits",
      "outputs": [
        {
          "internalType": "uint112",
          "name": "deposit",
          "type": "uint112"
        },
        {
          "internalType": "bool",
          "name": "staked",
          "type": "bool"
        },
        {
          "internalType": "uint112",
          "name": "stake",
          "type": "uint112"
        },
        {
          "internalType": "uint32",
          "name": "unstakeDelaySec",
          "type": "uint32"
        },
        {
          "internalType": "uint64",
          "name": "withdrawTime",
          "type": "uint64"
        }
      ],
      "stateMutability": "view",
      "type": "function"
    },
    {
      "inputs": [
        {
          "internalType": "address",
          "name": "account",
          "type": "address"
        }
      ],
      "name": "getDepositInfo",
      "outputs": [
        {
          "components": [
            {
              "internalType": "uint112",
              "name": "deposit",
              "type": "uint112"
            },
            {
              "internalType": "bool",
              "name": "staked",
              "type": "bool"
            },
            {
              "internalType": "uint112",
              "name": "stake",
              "type": "uint112"
            },
            {
              "internalType": "uint32",
              "name": "unstakeDelaySec",
              "type": "uint32"
            },
            {
              "internalType": "uint64",
              "name": "withdrawTime",
              "type": "uint64"
            }
          ],
          "internalType": "struct IStakeManager.DepositInfo",
          "name": "info",
          "type": "tuple"
        }
      ],
      "stateMutability": "view",
      "type": "function"
    },
    {
      "inputs": [
        {
          "internalType": "bytes",
          "name": "initCode",
          "type": "bytes"
        }
      ],
      "name": "getSenderAddress",
      "outputs": [],
      "stateMutability": "nonpayable",
      "type": "function"
    },
    {
      "inputs": [
        {
          "components": [
            {
              "internalType": "address",
              "name": "sender",
              "type": "address"
            },
            {
              "internalType": "uint256",
              "name": "nonce",
              "type": "uint256"
            },
            {
              "internalType": "bytes",
              "name": "initCode",
              "type": "bytes"
            },
            {
              "internalType": "bytes",
              "name": "callData",
              "type": "bytes"
            },
            {
              "internalType": "uint256",
              "name": "callGasLimit",
              "type": "uint256"
            },
            {
              "internalType": "uint256",
              "name": "verificationGasLimit",
              "type": "uint256"
            },
            {
              "internalType": "uint256",
              "name": "preVerificationGas",
              "type": "uint256"
            },
            {
              "internalType": "uint256",
              "name": "maxFeePerGas",
              "type": "uint256"
            },
            {
              "internalType": "uint256",
              "name": "maxPriorityFeePerGas",
              "type": "uint256"
            },
            {
              "internalType": "bytes",
              "name": "paymasterAndData",
              "type": "bytes"
            },
            {
              "internalType": "bytes",
              "name": "signature",
              "type": "bytes"
            }
          ],
          "internalType": "struct UserOperation",
          "name": "userOp",
          "type": "tuple"
        }
      ],
      "name": "getUserOpHash",
      "outputs": [
        {
          "internalType": "bytes32",
          "name": "",
          "type": "bytes32"
        }
      ],
      "stateMutability": "view",
      "type": "function"
    },
    {
      "inputs": [
        {
          "components": [
            {
              "components": [
                {
                  "internalType": "address",
                  "name": "sender",
                  "type": "address"
                },
                {
                  "internalType": "uint256",
                  "name": "nonce",
                  "type": "uint256"
                },
                {
                  "internalType": "bytes",
                  "name": "initCode",
                  "type": "bytes"
                },
                {
                  "internalType": "bytes",
                  "name": "callData",
                  "type": "bytes"
                },
                {
                  "internalType": "uint256",
                  "name": "callGasLimit",
                  "type": "uint256"
                },
                {
                  "internalType": "uint256",
                  "name": "verificationGasLimit",
                  "type": "uint256"
                },
                {
                  "internalType": "uint256",
                  "name": "preVerificationGas",
                  "type": "uint256"
                },
                {
                  "internalType": "uint256",
                  "name": "maxFeePerGas",
                  "type": "uint256"
                },
                {
                  "internalType": "uint256",
                  "name": "maxPriorityFeePerGas",
                  "type": "uint256"
                },
                {
                  "internalType": "bytes",
                  "name": "paymasterAndData",
                  "type": "bytes"
                },
                {
                  "internalType": "bytes",
                  "name": "signature",
                  "type": "bytes"
                }
              ],
              "internalType": "struct UserOperation[]",
              "name": "userOps",
              "type": "tuple[]"
            },
            {
              "internalType": "contract IAggregator",
              "name": "aggregator",
              "type": "address"
            },
            {
              "internalType": "bytes",
              "name": "signature",
              "type": "bytes"
            }
          ],
          "internalType": "struct IEntryPoint.UserOpsPerAggregator[]",
          "name": "opsPerAggregator",
          "type": "tuple[]"
        },
        {
          "internalType": "address payable",
          "name": "beneficiary",
          "type": "address"
        }
      ],
      "name": "handleAggregatedOps",
      "outputs": [],
      "stateMutability": "nonpayable",
      "type": "function"
    },
    {
      "inputs": [
        {
          "components": [
            {
              "internalType": "address",
              "name": "sender",
              "type": "address"
            },
            {
              "internalType": "uint256",
              "name": "nonce",
              "type": "uint256"
            },
            {
              "internalType": "bytes",
              "name": "initCode",
              "type": "bytes"
            },
            {
              "internalType": "bytes",
              "name": "callData",
              "type": "bytes"
            },
            {
              "internalType": "uint256",
              "name": "callGasLimit",
              "type": "uint256"
            },
            {
              "internalType": "uint256",
              "name": "verificationGasLimit",
              "type": "uint256"
            },
            {
              "internalType": "uint256",
              "name": "preVerificationGas",
              "type": "uint256"
            },
            {
              "internalType": "uint256",
              "name": "maxFeePerGas",
              "type": "uint256"
            },
            {
              "internalType": "uint256",
              "name": "maxPriorityFeePerGas",
              "type": "uint256"
            },
            {
              "internalType": "bytes",
              "name": "paymasterAndData",
              "type": "bytes"
            },
            {
              "internalType": "bytes",
              "name": "signature",
              "type": "bytes"
            }
          ],
          "internalType": "struct UserOperation[]",
          "name": "ops",
          "type": "tuple[]"
        },
        {
          "internalType": "address payable",
          "name": "beneficiary",
          "type": "address"
        }
      ],
      "name": "handleOps",
      "outputs": [],
      "stateMutability": "nonpayable",
      "type": "function"
    },
    {
      "inputs": [
        {
          "internalType": "bytes",
          "name": "callData",
          "type": "bytes"
        },
        {
          "components": [
            {
              "components": [
                {
                  "internalType": "address",
                  "name": "sender",
                  "type": "address"
                },
                {
                  "internalType": "uint256",
                  "name": "nonce",
                  "type": "uint256"
                },
                {
                  "internalType": "uint256",
                  "name": "callGasLimit",
                  "type": "uint256"
                },
                {
                  "internalType": "uint256",
                  "name": "verificationGasLimit",
                  "type": "uint256"
                },
                {
                  "internalType": "uint256",
                  "name": "preVerificationGas",
                  "type": "uint256"
                },
                {
                  "internalType": "address",
                  "name": "paymaster",
                  "type": "address"
                },
                {
                  "internalType": "uint256",
                  "name": "maxFeePerGas",
                  "type": "uint256"
                },
                {
                  "internalType": "uint256",
                  "name": "maxPriorityFeePerGas",
                  "type": "uint256"
                }
              ],
              "internalType": "struct EntryPoint.MemoryUserOp",
              "name": "mUserOp",
              "type": "tuple"
            },
            {
              "internalType": "bytes32",
              "name": "userOpHash",
              "type": "bytes32"
            },
            {
              "internalType": "uint256",
              "name": "prefund",
              "type": "uint256"
            },
            {
              "internalType": "uint256",
              "name": "contextOffset",
              "type": "uint256"
            },
            {
              "internalType": "uint256",
              "name": "preOpGas",
              "type": "uint256"
            }
          ],
          "internalType": "struct EntryPoint.UserOpInfo",
          "name": "opInfo",
          "type": "tuple"
        },
        {
          "internalType": "bytes",
          "name": "context",
          "type": "bytes"
        }
      ],
      "name": "innerHandleOp",
      "outputs": [
        {
          "internalType": "uint256",
          "name": "actualGasCost",
          "type": "uint256"
        }
      ],
      "stateMutability": "nonpayable",
      "type": "function"
    },
    {
      "inputs": [
        {
          "components": [
            {
              "internalType": "address",
              "name": "sender",
              "type": "address"
            },
            {
              "internalType": "uint256",
              "name": "nonce",
              "type": "uint256"
            },
            {
              "internalType": "bytes",
              "name": "initCode",
              "type": "bytes"
            },
            {
              "internalType": "bytes",
              "name": "callData",
              "type": "bytes"
            },
            {
              "internalType": "uint256",
              "name": "callGasLimit",
              "type": "uint256"
            },
            {
              "internalType": "uint256",
              "name": "verificationGasLimit",
              "type": "uint256"
            },
            {
              "internalType": "uint256",
              "name": "preVerificationGas",
              "type": "uint256"
            },
            {
              "internalType": "uint256",
              "name": "maxFeePerGas",
              "type": "uint256"
            },
            {
              "internalType": "uint256",
              "name": "maxPriorityFeePerGas",
              "type": "uint256"
            },
            {
              "internalType": "bytes",
              "name": "paymasterAndData",
              "type": "bytes"
            },
            {
              "internalType": "bytes",
              "name": "signature",
              "type": "bytes"
            }
          ],
          "internalType": "struct UserOperation",
          "name": "op",
          "type": "tuple"
        },
        {
          "internalType": "address",
          "name": "target",
          "type": "address"
        },
        {
          "internalType": "bytes",
          "name": "targetCallData",
          "type": "bytes"
        }
      ],
      "name": "simulateHandleOp",
      "outputs": [],
      "stateMutability": "nonpayable",
      "type": "function"
    },
    {
      "inputs": [
        {
          "components": [
            {
              "internalType": "address",
              "name": "sender",
              "type": "address"
            },
            {
              "internalType": "uint256",
              "name": "nonce",
              "type": "uint256"
            },
            {
              "internalType": "bytes",
              "name": "initCode",
              "type": "bytes"
            },
            {
              "internalType": "bytes",
              "name": "callData",
              "type": "bytes"
            },
            {
              "internalType": "uint256",
              "name": "callGasLimit",
              "type": "uint256"
            },
            {
              "internalType": "uint256",
              "name": "verificationGasLimit",
              "type": "uint256"
            },
            {
              "internalType": "uint256",
              "name": "preVerificationGas",
              "type": "uint256"
            },
            {
              "internalType": "uint256",
              "name": "maxFeePerGas",
              "type": "uint256"
            },
            {
              "internalType": "uint256",
              "name": "maxPriorityFeePerGas",
              "type": "uint256"
            },
            {
              "internalType": "bytes",
              "name": "paymasterAndData",
              "type": "bytes"
            },
            {
              "internalType": "bytes",
              "name": "signature",
              "type": "bytes"
            }
          ],
          "internalType": "struct UserOperation",
          "name": "userOp",
          "type": "tuple"
        }
      ],
      "name": "simulateValidation",
      "outputs": [],
      "stateMutability": "nonpayable",
      "type": "function"
    },
    {
      "inputs": [],
      "name": "unlockStake",
      "outputs": [],
      "stateMutability": "nonpayable",
      "type": "function"
    },
    {
      "inputs": [
        {
          "internalType": "address payable",
          "name": "withdrawAddress",
          "type": "address"
        }
      ],
      "name": "withdrawStake",
      "outputs": [],
      "stateMutability": "nonpayable",
      "type": "function"
    },
    {
      "inputs": [
        {
          "internalType": "address payable",
          "name": "withdrawAddress",
          "type": "address"
        },
        {
          "internalType": "uint256",
          "name": "withdrawAmount",
          "type": "uint256"
        }
      ],
      "name": "withdrawTo",
      "outputs": [],
      "stateMutability": "nonpayable",
      "type": "function"
    },
    {
      "stateMutability": "payable",
      "type": "receive"
    }
  ],
  "bytecode": "0x60a08060405234620000845761022c8181016001600160401b038111838210176200006e57829162005eab833903906000f080156200006257608052604051615e2190816200008a82396080518181816110d8015281816140d301526143f00152f35b6040513d6000823e3d90fd5b634e487b7160e01b600052604160045260246000fd5b600080fdfe60806040526004361015610023575b361561001957600080fd5b6100216156ce565b005b60003560e01c80630396cb60146101775780631d7327561461016e5780631fad948c14610165578063205c28781461015c5780634b1d7cf5146101535780635287ce121461014a57806370a08231146101415780638f41ec5a146101385780639b249f691461012f578063a47a3fbc14610126578063a61935311461011d578063b760faf914610114578063bb9fe6bf1461010b578063c23a5cea14610102578063d6383f94146100f9578063ee219423146100f05763fc7e286d0361000e576100eb611a55565b61000e565b506100eb611874565b506100eb61170e565b506100eb611571565b506100eb6113ed565b506100eb6113ae565b506100eb61138d565b506100eb611177565b506100eb611030565b506100eb610ff5565b506100eb610f70565b506100eb610e1a565b506100eb610aef565b506100eb610950565b506100eb6106ff565b506100eb61052c565b5060207ffffffffffffffffffffffffffffffffffffffffffffffffffffffffffffffffc36011261031c5760043563ffffffff811680820361031c576103177fa5ae833d0bb1dcd632d98a8b70973e8516812898e19bf27b70071ebc8dc52c01916102356102053373ffffffffffffffffffffffffffffffffffffffff166000526000602052604060002090565b91610211811515615834565b61022e610225600185015463ffffffff1690565b63ffffffff1690565b1115615899565b54926102f96dffffffffffffffffffffffffffff946102b761025c34888460781c16611ff2565b966102688815156158fe565b610273818910615963565b6102978161027f6103ec565b941684906dffffffffffffffffffffffffffff169052565b6001602084015287166dffffffffffffffffffffffffffff166040830152565b63ffffffff83166060820152600060808201526102f43373ffffffffffffffffffffffffffffffffffffffff166000526000602052604060002090565b6159c8565b6040805194855263ffffffff90911660208501523393918291820190565b0390a2005b600080fd5b507f4e487b7100000000000000000000000000000000000000000000000000000000600052604160045260246000fd5b60a0810190811067ffffffffffffffff82111761036d57604052565b610375610321565b604052565b610100810190811067ffffffffffffffff82111761036d57604052565b67ffffffffffffffff811161036d57604052565b90601f7fffffffffffffffffffffffffffffffffffffffffffffffffffffffffffffffe0910116810190811067ffffffffffffffff82111761036d57604052565b604051906103f982610351565b565b6040519060c0820182811067ffffffffffffffff82111761036d57604052565b604051906040820182811067ffffffffffffffff82111761036d57604052565b7fffffffffffffffffffffffffffffffffffffffffffffffffffffffffffffffe0601f60209267ffffffffffffffff8111610477575b01160190565b61047f610321565b610471565b9291926104908261043b565b9161049e60405193846103ab565b82948184528183011161031c578281602093846000960137010152565b73ffffffffffffffffffffffffffffffffffffffff81160361031c57565b602435906103f9826104bb565b60c435906103f9826104bb565b35906103f9826104bb565b9181601f8401121561031c5782359167ffffffffffffffff831161031c576020838186019501011161031c57565b503461031c576101c07ffffffffffffffffffffffffffffffffffffffffffffffffffffffffffffffffc36011261031c5767ffffffffffffffff60043581811161031c573660238201121561031c5761058f903690602481600401359101610484565b907fffffffffffffffffffffffffffffffffffffffffffffffffffffffffffffffdc3601610180811261031c57610100604051916105cc83610351565b1261031c576040516105dd8161037a565b6105e56104d9565b815260443560208201526064356040820152608435606082015260a435608082015261060f6104e6565b60a082015260e43560c08201526101043560e082015281526101243560208201526101443560408201526101643560608201526101843560808201526101a43591821161031c576106839261066b6106739336906004016104fe565b92909161263c565b6040519081529081906020820190565b0390f35b9060407ffffffffffffffffffffffffffffffffffffffffffffffffffffffffffffffffc83011261031c5760043567ffffffffffffffff9283821161031c578060238301121561031c57816004013593841161031c5760248460051b8301011161031c5760240191906024356106fc816104bb565b90565b503461031c5761070e36610687565b610719829392611bb7565b60005b84811061076b575060009283915b85831061073b576100218585611cf4565b90919360019061076161074f878987611c76565b6107598886611c54565b519088612177565b019401919061072a565b61077781839593611c54565b51610783828785611c76565b6000915a815192610794848261311e565b61079d81612797565b602084015260809182850151946060958682015117956107e36effffffffffffffffffffffffffffff60409889850151176101008701359060e088013517171115612d43565b6107ec826131e0565b6107f88188878d6133e0565b9991905061080543600052565b839460a0809101918d73ffffffffffffffffffffffffffffffffffffffff610841855173ffffffffffffffffffffffffffffffffffffffff1690565b16610933575b50505a8703908801351061088857509260c09261087f9997959289979560019d9c9a01528601525a9003910135019082015284612a18565b0192909261071c565b61092f6108aa8d925173ffffffffffffffffffffffffffffffffffffffff1690565b92519283927efa072b000000000000000000000000000000000000000000000000000000008452600484019060a09273ffffffffffffffffffffffffffffffffffffffff91835216602082015260606040820152601e60608201527f41413430206f76657220766572696669636174696f6e4761734c696d6974000060808201520190565b0390fd5b610946939d508591929750898c91614a68565b9a9094388d610847565b503461031c5760407ffffffffffffffffffffffffffffffffffffffffffffffffffffffffffffffffc36011261031c5760043561098c816104bb565b6024359060009133835282602052604083206dffffffffffffffffffffffffffff81541692838311610a9157848373ffffffffffffffffffffffffffffffffffffffff829593610a3484966109fb6109e88798610a8e9c611fdd565b6dffffffffffffffffffffffffffff1690565b6dffffffffffffffffffffffffffff167fffffffffffffffffffffffffffffffffffff0000000000000000000000000000825416179055565b6040805173ffffffffffffffffffffffffffffffffffffffff831681526020810185905233917fd1c19fbcd4551a5edfb66d43d2e337c04837afda3482b42bdf569a8fccdae5fb91a2165af1610a88611cc4565b50615d45565b80f35b60646040517f08c379a000000000000000000000000000000000000000000000000000000000815260206004820152601960248201527f576974686472617720616d6f756e7420746f6f206c61726765000000000000006044820152fd5b503461031c57610afe36610687565b6000805b838210610deb57610b139150611bb7565b6000805b848110610c5d57505060008093815b818110610b6e5761002186867f575ff3acadd5ab348fe1855e217e0f3678f8d767d7494c9f9fefbee2e17cca4d60405180610b6681906000602083019252565b0390a1611cf4565b610bf8610b7c82848a61231d565b7f575ff3acadd5ab348fe1855e217e0f3678f8d767d7494c9f9fefbee2e17cca4d610bef610bc8610baf602085016123bf565b73ffffffffffffffffffffffffffffffffffffffff1690565b60405173ffffffffffffffffffffffffffffffffffffffff90911681529081906020820190565b0390a18061236b565b906000915b808310610c1557505050610c10906122e3565b610b26565b90919497610c50610c4a610c5692610c448c8b610c3d82610c378e8b8d611c76565b92611c54565b5191612177565b90611ff2565b996122e3565b956122e3565b9190610bfd565b610c6881868861231d565b610c72818061236b565b9091610c80602082016123bf565b73ffffffffffffffffffffffffffffffffffffffff169260005b87848210610da557505083610cbc575b50505050610cb7906122e3565b610b17565b610cd560409a97949a9996939998959289810190611de5565b8b3b1561031c578b918a5193849283927fe3563a4f00000000000000000000000000000000000000000000000000000000845260049e8f850193610d18946124fe565b03815a93600094fa9081610d8c575b50610d775786517f86a9f75000000000000000000000000000000000000000000000000000000000815273ffffffffffffffffffffffffffffffffffffffff8a16818a0190815281906020010390fd5b94975092955090935091610cb7388080610caa565b80610d99610d9f92610397565b80610fea565b38610d27565b87610ddb610dcd610dd38986610dc2610de6989e610de098611c54565b519384918c8b611c76565b86612f2f565b50918c612a18565b6122e3565b966122e3565b610c9a565b610e0e610e1491610e06610e0085888a61231d565b8061236b565b919050611ff2565b916122e3565b90610b02565b503461031c5760207ffffffffffffffffffffffffffffffffffffffffffffffffffffffffffffffffc36011261031c5761068373ffffffffffffffffffffffffffffffffffffffff600435610e6e816104bb565b608060409283928351610e8081610351565b600093818580935282602082015282878201528260608201520152168152806020522090610f1367ffffffffffffffff6001835194610ebe86610351565b80546dffffffffffffffffffffffffffff8082168852607082901c60ff161515602089015260789190911c1685870152015463ffffffff8116606086015260201c16608084019067ffffffffffffffff169052565b5191829182919091608067ffffffffffffffff8160a08401956dffffffffffffffffffffffffffff808251168652602082015115156020870152604082015116604086015263ffffffff6060820151166060860152015116910152565b503461031c5760207ffffffffffffffffffffffffffffffffffffffffffffffffffffffffffffffffc36011261031c5773ffffffffffffffffffffffffffffffffffffffff600435610fc1816104bb565b16600052600060205260206dffffffffffffffffffffffffffff60406000205416604051908152f35b600091031261031c57565b503461031c5760007ffffffffffffffffffffffffffffffffffffffffffffffffffffffffffffffffc36011261031c57602060405160018152f35b503461031c5760207ffffffffffffffffffffffffffffffffffffffffffffffffffffffffffffffffc36011261031c5760043567ffffffffffffffff811161031c5761108260249136906004016104fe565b906110b86040519283927f570e1a3600000000000000000000000000000000000000000000000000000000845260048401612a07565b0360208273ffffffffffffffffffffffffffffffffffffffff92816000857f0000000000000000000000000000000000000000000000000000000000000000165af191821561116a575b60009261113a575b50604051917f6ca7b806000000000000000000000000000000000000000000000000000000008352166004820152fd5b61115c91925060203d8111611163575b61115481836103ab565b8101906129f2565b903861110a565b503d61114a565b611172611fa0565b611102565b503461031c5760407ffffffffffffffffffffffffffffffffffffffffffffffffffffffffffffffffc36011261031c576004356111b3816104bb565b602435906111c0826104bb565b6111cb3033146125c0565b600090803b156112d65773ffffffffffffffffffffffffffffffffffffffff92838116151590816112cc575b5061126d576020906004604051809581937f3ad59dbc000000000000000000000000000000000000000000000000000000008352165afa90918161124d575b50611248575060005b60005260206000fd5b61123f565b61126691925060203d81116111635761115481836103ab565b9038611236565b6040517f08c379a000000000000000000000000000000000000000000000000000000000815260206004820152601b60248201527f41413330207061796d6173746572206e6f74206465706c6f79656400000000006044820152606490fd5b90503b15386111f7565b6040517f08c379a000000000000000000000000000000000000000000000000000000000815260206004820152601960248201527f41413230206163636f756e74206e6f74206465706c6f796564000000000000006044820152606490fd5b908161016091031261031c5790565b60207ffffffffffffffffffffffffffffffffffffffffffffffffffffffffffffffffc82011261031c576004359067ffffffffffffffff821161031c576106fc91600401611335565b503461031c5760206113a66113a136611344565b612797565b604051908152f35b5060207ffffffffffffffffffffffffffffffffffffffffffffffffffffffffffffffffc36011261031c576100216004356113e8816104bb565b6157c8565b503461031c576000807ffffffffffffffffffffffffffffffffffffffffffffffffffffffffffffffffc36011261156e573381528060205260408120600181019063ffffffff825416908115611510576114ab61146e6114d39361145e611459855460ff9060701c1690565b615b30565b67ffffffffffffffff4216615b95565b84547fffffffffffffffffffffffffffffffffffffffff0000000000000000ffffffff16602082901b6bffffffffffffffff000000001617909455565b7fffffffffffffffffffffffffffffffffff00ffffffffffffffffffffffffffff8154169055565b60405167ffffffffffffffff91909116815233907ffa9b3c14cc825c412c9ed81b3ba365a5b459439403f18829e572ed53a4180f0a90602090a280f35b60646040517f08c379a000000000000000000000000000000000000000000000000000000000815260206004820152600a60248201527f6e6f74207374616b6564000000000000000000000000000000000000000000006044820152fd5b80fd5b503461031c5760207ffffffffffffffffffffffffffffffffffffffffffffffffffffffffffffffffc36011261031c576004356115ad816104bb565b610a8e73ffffffffffffffffffffffffffffffffffffffff6115ef3373ffffffffffffffffffffffffffffffffffffffff166000526000602052604060002090565b926116ab6116126109e886546dffffffffffffffffffffffffffff9060781c1690565b9461161e861515615bb1565b6116836001820161165b67ffffffffffffffff611647835467ffffffffffffffff9060201c1690565b16611653811515615c16565b421015615c7b565b80547fffffffffffffffffffffffffffffffffffffffff000000000000000000000000169055565b7fffffff0000000000000000000000000000ffffffffffffffffffffffffffffff8154169055565b6040805173ffffffffffffffffffffffffffffffffffffffff831681526020810186905233917fb7c918e0e249f999e965cafeb6c664271b3f4317d296461500e71da39f0cbda391a2600080809581948294165af1611708611cc4565b50615ce0565b503461031c5760607ffffffffffffffffffffffffffffffffffffffffffffffffffffffffffffffffc36011261031c5767ffffffffffffffff60043581811161031c5761175f903690600401611335565b6024359161176c836104bb565b6044359080821161031c5761178861092f9236906004016104fe565b9091611792611b34565b6117a661179f8288612da8565b5090612ce6565b929150966117b982600092438452611fff565b98438252819560609773ffffffffffffffffffffffffffffffffffffffff8316611840575b50505050608083910151966040519889987f8ec81987000000000000000000000000000000000000000000000000000000008a5260048a015260248901521660448701521660648501521515608484015260c060a484015260c4830190611ea7565b839598508394975081604094929394519384928337810182815203925af19281608061186a611cc4565b95949138806117de565b503461031c5761188336611344565b61197961188e611b34565b6118988184612da8565b90919261198a6119386118cc6118c760a085510173ffffffffffffffffffffffffffffffffffffffff90511690565b615679565b9461193261190a6118f66118c7875173ffffffffffffffffffffffffffffffffffffffff90511690565b9a6118ff612829565b506040810190611de5565b90600060148310611a4d57506119266118c79261192c92612861565b9061286f565b60601c90565b96612ce6565b91979061196860808601519960606040880151970151966119576103fb565b9b8c5260208c0152151560408b0152565b67ffffffffffffffff166060890152565b67ffffffffffffffff166080870152565b60a085015273ffffffffffffffffffffffffffffffffffffffff81166119e1575061092f916040519485947ff04297e900000000000000000000000000000000000000000000000000000000865260048601612998565b9061092f926119ef83615679565b611a166119fa61041b565b73ffffffffffffffffffffffffffffffffffffffff9095168552565b60208401526040519586957f356877a300000000000000000000000000000000000000000000000000000000875260048701612906565b915050615679565b503461031c5760207ffffffffffffffffffffffffffffffffffffffffffffffffffffffffffffffffc36011261031c5773ffffffffffffffffffffffffffffffffffffffff600435611aa6816104bb565b16600052600060205260a0604060002067ffffffffffffffff60018254920154604051926dffffffffffffffffffffffffffff90818116855260ff8160701c161515602086015260781c16604084015263ffffffff8116606084015260201c166080820152f35b60209067ffffffffffffffff8111611b27575b60051b0190565b611b2f610321565b611b20565b60405190611b4182610351565b604051608083610100830167ffffffffffffffff811184821017611baa575b60405260009283815283602082015283604082015283606082015283838201528360a08201528360c08201528360e082015281528260208201528260408201528260608201520152565b611bb2610321565b611b60565b90611bc182611b0d565b611bce60405191826103ab565b8281527fffffffffffffffffffffffffffffffffffffffffffffffffffffffffffffffe0611bfc8294611b0d565b019060005b828110611c0d57505050565b602090611c18611b34565b82828501015201611c01565b507f4e487b7100000000000000000000000000000000000000000000000000000000600052603260045260246000fd5b6020918151811015611c69575b60051b010190565b611c71611c24565b611c61565b9190811015611cb7575b60051b810135907ffffffffffffffffffffffffffffffffffffffffffffffffffffffffffffffea18136030182121561031c570190565b611cbf611c24565b611c80565b3d15611cef573d90611cd58261043b565b91611ce360405193846103ab565b82523d6000602084013e565b606090565b73ffffffffffffffffffffffffffffffffffffffff168015611d8757600080809381935af1611d21611cc4565b5015611d2957565b60646040517f08c379a000000000000000000000000000000000000000000000000000000000815260206004820152601f60248201527f41413931206661696c65642073656e6420746f2062656e6566696369617279006044820152fd5b60646040517f08c379a000000000000000000000000000000000000000000000000000000000815260206004820152601860248201527f4141393020696e76616c69642062656e656669636961727900000000000000006044820152fd5b9035907fffffffffffffffffffffffffffffffffffffffffffffffffffffffffffffffe18136030182121561031c570180359067ffffffffffffffff821161031c5760200191813603831361031c57565b9081602091031261031c575190565b601f82602094937fffffffffffffffffffffffffffffffffffffffffffffffffffffffffffffffe0938186528686013760008582860101520116010190565b60005b838110611e975750506000910152565b8181015183820152602001611e87565b907fffffffffffffffffffffffffffffffffffffffffffffffffffffffffffffffe0601f602093611ee381518092818752878088019101611e84565b0116010190565b90611f046080916106fc96946101c0808652850191611e45565b9360e0815173ffffffffffffffffffffffffffffffffffffffff80825116602087015260208201516040870152604082015160608701526060820151858701528482015160a087015260a08201511660c086015260c081015182860152015161010084015260208101516101208401526040810151610140840152606081015161016084015201516101808201526101a0818403910152611ea7565b506040513d6000823e3d90fd5b507f4e487b7100000000000000000000000000000000000000000000000000000000600052601160045260246000fd5b91908203918211611fea57565b6103f9611fad565b91908201809211611fea57565b5a8260206120166060830151946060810190611de5565b9061204f8660405195869485947f1d73275600000000000000000000000000000000000000000000000000000000865260048601611eea565b03816000305af160009181612147575b50612140575060206000803e7fdeaddead00000000000000000000000000000000000000000000000000000000600051146120b857906120b26120a76106fc94935a90611fdd565b608084015190611ff2565b91614d7d565b825160a001516040517efa072b0000000000000000000000000000000000000000000000000000000081526000600482015273ffffffffffffffffffffffffffffffffffffffff909116602482015260606044820152600f60648201527f41413935206f7574206f66206761730000000000000000000000000000000000608482015260a490fd5b9250505090565b61216991925060203d8111612170575b61216181836103ab565b810190611e36565b903861205f565b503d612157565b909291925a8460206121926060830151946060810190611de5565b906121cb8660405195869485947f1d73275600000000000000000000000000000000000000000000000000000000865260048601611eea565b03816000305af1600091816122c3575b506122bc575060206000803e7fdeaddead0000000000000000000000000000000000000000000000000000000060005114612234579361222e6122236106fc95965a90611fdd565b608083015190611ff2565b926150ae565b845160a001516040517efa072b0000000000000000000000000000000000000000000000000000000081526004810185905273ffffffffffffffffffffffffffffffffffffffff909116602482015260606044820152600f60648201527f41413935206f7574206f66206761730000000000000000000000000000000000608482015260a490fd5b9450505050565b6122dc91925060203d81116121705761216181836103ab565b90386121db565b6001907fffffffffffffffffffffffffffffffffffffffffffffffffffffffffffffffff8114612311570190565b612319611fad565b0190565b919081101561235e575b60051b810135907fffffffffffffffffffffffffffffffffffffffffffffffffffffffffffffffa18136030182121561031c570190565b612366611c24565b612327565b9035907fffffffffffffffffffffffffffffffffffffffffffffffffffffffffffffffe18136030182121561031c570180359067ffffffffffffffff821161031c57602001918160051b3603831361031c57565b356106fc816104bb565b90357fffffffffffffffffffffffffffffffffffffffffffffffffffffffffffffffe18236030181121561031c57016020813591019167ffffffffffffffff821161031c57813603831361031c57565b6106fc916124448161242a846104f3565b73ffffffffffffffffffffffffffffffffffffffff169052565b602082013560208201526124df61249061247561246460408601866123c9565b610160806040880152860191611e45565b61248260608601866123c9565b908583036060870152611e45565b6080840135608084015260a084013560a084015260c084013560c084015260e084013560e084015261010080850135908401526101206124d2818601866123c9565b9185840390860152611e45565b916124f061014091828101906123c9565b929091818503910152611e45565b949391929083604087016040885252606086019360608160051b8801019482600090815b848310612541575050505050508460206106fc95968503910152611e45565b9091929394977fffffffffffffffffffffffffffffffffffffffffffffffffffffffffffffffa08b820301855288357ffffffffffffffffffffffffffffffffffffffffffffffffffffffffffffffea1843603018112156125bc57600191846125aa9201612419565b98602090810196950193019190612522565b8280fd5b156125c757565b60646040517f08c379a000000000000000000000000000000000000000000000000000000000815260206004820152601760248201527f4141393220696e7465726e616c2063616c6c206f6e6c790000000000000000006044820152fd5b6040906106fc939281528160208201520190611ea7565b909291925a9361264d3033146125c0565b8151946040860151955a61138860608301518901011161276d576106fc966000958051612694575b5050509061268e915a9003608084015101943691610484565b9161536f565b6126c3916126bf916126ba855173ffffffffffffffffffffffffffffffffffffffff1690565b615daa565b1590565b6126cf575b8080612675565b61268e929194506126de615dbc565b9081516126f2575b505060019390916126c8565b7f1c4fada7374c0a9ee8841fc38afe82932dc0f8e69012e927f061a8bae611a20173ffffffffffffffffffffffffffffffffffffffff6020870151926127636020612751835173ffffffffffffffffffffffffffffffffffffffff1690565b92015195604051938493169683612625565b0390a338806126e6565b7fdeaddead0000000000000000000000000000000000000000000000000000000060005260206000fd5b806127a6610140820182611de5565b50037fffffffffffffffffffffffffffffffffffffffffffffffffffffffffffffffe081016040519182016040528082526020820192833751902060405160208101918252306040820152466060820152606081526080810181811067ffffffffffffffff82111761281c575b60405251902090565b612824610321565b612813565b604051906040820182811067ffffffffffffffff821117612854575b60405260006020838281520152565b61285c610321565b612845565b9060141161031c5790601490565b7fffffffffffffffffffffffffffffffffffffffff00000000000000000000000090358181169392601481106128a457505050565b60140360031b82901b16169150565b9060c060a06106fc93805184526020810151602085015260408101511515604085015267ffffffffffffffff80606083015116606086015260808201511660808501520151918160a08201520190611ea7565b92946129676103f99561295561010095999861294361292f602097610140808c528b01906128b3565b9b878a019060208091805184520151910152565b80516060890152602001516080880152565b805160a08701526020015160c0860152565b73ffffffffffffffffffffffffffffffffffffffff81511660e0850152015191019060208091805184520151910152565b6129e16103f9946129cf6129ba60a0959998969960e0865260e08601906128b3565b98602085019060208091805184520151910152565b80516060840152602001516080830152565b019060208091805184520151910152565b9081602091031261031c57516106fc816104bb565b9160206106fc938181520191611e45565b929091612a2490612c4e565b90612be257612b7657612a3690612c4e565b90612aef57612a43575050565b5160a001516040517efa072b000000000000000000000000000000000000000000000000000000008152600481019290925273ffffffffffffffffffffffffffffffffffffffff16602482015260606044820152602160648201527f41413332207061796d61737465722065787069726564206f72206e6f7420647560848201527f650000000000000000000000000000000000000000000000000000000000000060a482015260c490fd5b505160a001516040517efa072b000000000000000000000000000000000000000000000000000000008152600481019290925273ffffffffffffffffffffffffffffffffffffffff16602482015260606044820152601460648201527f41413334207369676e6174757265206572726f72000000000000000000000000608482015260a490fd5b6040517efa072b000000000000000000000000000000000000000000000000000000008152600481018490526000602482015260606044820152601760648201527f414132322065787069726564206f72206e6f7420647565000000000000000000608482015260a490fd5b6040517efa072b000000000000000000000000000000000000000000000000000000008152600481018590526000602482015260606044820152601460648201527f41413234207369676e6174757265206572726f72000000000000000000000000608482015260a490fd5b8015612c8257612c5d90612c8b565b92919267ffffffffffffffff8091164211918215612c7a57505090565b164210919050565b50600090600090565b9060ff82161515918060081c7fffffffffffffffffffffffffffffffffffffffffffffffffffffffffffffffff8101908113600116612cd9575b67ffffffffffffffff9081169160481c1691565b612ce1611fad565b612cc5565b612cef90612c8b565b91939082612cfd8295612c8b565b93918891989115612d3b575b509667ffffffffffffffff9182808316911610612d33575b50808316911611612d2f5750565b9150565b955038612d21565b905038612d09565b15612d4a57565b60646040517f08c379a000000000000000000000000000000000000000000000000000000000815260206004820152601860248201527f41413934206761732076616c756573206f766572666c6f7700000000000000006044820152fd5b91906000915a91805194612dbc868261311e565b612dc581612797565b6020830152612e036effffffffffffffffffffffffffffff60808801516060890151176040890151176101008401359060e085013517171115612d43565b612e0c866131e0565b93612e1885848461372c565b9891969096612e2643600052565b60a0606093019073ffffffffffffffffffffffffffffffffffffffff612e60835173ffffffffffffffffffffffffffffffffffffffff1690565b16612f15575b505a840360a086013510612e925750604085015260608401526080919060c0905a900391013501910152565b516040517efa072b0000000000000000000000000000000000000000000000000000000081526000600482015273ffffffffffffffffffffffffffffffffffffffff909116602482015260606044820152601e60648201527f41413430206f76657220766572696669636174696f6e4761734c696d69740000608482015260a490fd5b90925081612f26929950868661477e565b97909138612e66565b91939092936000935a8251612f44818461311e565b612f4d83612797565b6020850152612f8b6effffffffffffffffffffffffffffff60808301516060840151176040840151176101008601359060e087013517171115612d43565b612fa1612f97826131e0565b809986868a613bac565b9991979097612faf43600052565b60a0606094019073ffffffffffffffffffffffffffffffffffffffff612fe9835173ffffffffffffffffffffffffffffffffffffffff1690565b1661309e575b505a850360a08701351061301c575050604085015260608401526080919060c0905a900391013501910152565b516040517efa072b000000000000000000000000000000000000000000000000000000008152600481019290925273ffffffffffffffffffffffffffffffffffffffff16602482015260606044820152601e60648201527f41413430206f76657220766572696669636174696f6e4761734c696d69740000608482015260a490fd5b9093508199508287876130b094614a68565b98909238612fef565b156130c057565b60646040517f08c379a000000000000000000000000000000000000000000000000000000000815260206004820152601d60248201527f4141393320696e76616c6964207061796d6173746572416e64446174610000006044820152fd5b6131909061314861312e826123bf565b73ffffffffffffffffffffffffffffffffffffffff168452565b602081013560208401526080810135604084015260a0810135606084015260c0810135608084015260e081013560c084015261010081013560e0840152610120810190611de5565b9081156131d5576131ba61192c6119268460a0946131b560146103f9999810156130b9565b612861565b73ffffffffffffffffffffffffffffffffffffffff16910152565b505060a06000910152565b60a081015173ffffffffffffffffffffffffffffffffffffffff16156132225760c060035b60ff60408401519116606084015102016080830151019101510290565b60c06001613205565b60009060033d1161323857565b905060046000803e60005160e01c90565b600060443d106106fc576040517ffffffffffffffffffffffffffffffffffffffffffffffffffffffffffffffffc91823d016004833e815167ffffffffffffffff918282113d6024840111176132c5578184019485519384116132cd573d850101602084870101116132c557506106fc929101602001906103ab565b949350505050565b50949350505050565b9060606106fc9260008152600060208201528160408201520190611ea7565b6060906106fc93928152600060208201528160408201520190611ea7565b60609073ffffffffffffffffffffffffffffffffffffffff6106fc9493600083521660208201528160408201520190611ea7565b73ffffffffffffffffffffffffffffffffffffffff6106fc949360609383521660208201528160408201520190611ea7565b61339160609295949395608083526080830190612419565b946020820152600060408201520152565b906060929594936133d073ffffffffffffffffffffffffffffffffffffffff92608085526080850190612419565b9660208401521660408201520152565b60009360009283945a946134a76020835193613410855173ffffffffffffffffffffffffffffffffffffffff1690565b956134296134216040830183611de5565b90848c614365565b60a086015173ffffffffffffffffffffffffffffffffffffffff169085809373ffffffffffffffffffffffffffffffffffffffff8094161598896136c4575b60600151908601516040517f0825d1fc000000000000000000000000000000000000000000000000000000008152978896879586939060048501613379565b03938a1690f18291816136a4575b5061369b57506001906134c661322b565b6308c379a014613650575b506135e4575b6134e5575b5050505a900392565b61350f9073ffffffffffffffffffffffffffffffffffffffff166000526000602052604060002090565b9161352b6109e884546dffffffffffffffffffffffffffff1690565b90818311613577575082547fffffffffffffffffffffffffffffffffffff0000000000000000000000000000169190036dffffffffffffffffffffffffffff161790555b3880806134dc565b6040517efa072b00000000000000000000000000000000000000000000000000000000815260048101919091526000602482015260606044820152601760648201527f41413231206469646e2774207061792070726566756e64000000000000000000608482015260a490fd5b6040517efa072b000000000000000000000000000000000000000000000000000000008152600481018590526000602482015260606044820152601660648201527f4141323320726576657274656420286f72204f4f472900000000000000000000608482015260a490fd5b613658613249565b908161366457506134d1565b86905061092f6040519283927efa072b000000000000000000000000000000000000000000000000000000008452600484016132f5565b96506134d79050565b6136bd91925060203d81116121705761216181836103ab565b90386134b5565b945061370a6109e86136f68c73ffffffffffffffffffffffffffffffffffffffff166000526000602052604060002090565b546dffffffffffffffffffffffffffff1690565b8b8111156137215750856060835b96915050613468565b606087918d03613718565b600160009360009283945a948151613758815173ffffffffffffffffffffffffffffffffffffffff1690565b9360409661377261376b89840184611de5565b908761404b565b60a083015173ffffffffffffffffffffffffffffffffffffffff1661379643600052565b303b15613ba85788517fa47a3fbc00000000000000000000000000000000000000000000000000000000815273ffffffffffffffffffffffffffffffffffffffff8881166004830152821660248201528581604481305afa9081613b95575b50613b90578161380361322b565b6308c379a014613b49575b613ae3575b84928573ffffffffffffffffffffffffffffffffffffffff809316159788613a8d575b6020606081979801519101519261387b8d51988997889687947f0825d1fc000000000000000000000000000000000000000000000000000000008652600486016133a2565b03938a1690f1829181613a6d575b50613a64575060019061389a61322b565b6308c379a014613a1b575b506139b0575b6138b8575050505a900392565b6138e29073ffffffffffffffffffffffffffffffffffffffff166000526000602052604060002090565b916138fe6109e884546dffffffffffffffffffffffffffff1690565b90818311613946575082547fffffffffffffffffffffffffffffffffffff0000000000000000000000000000169190036dffffffffffffffffffffffffffff1617905561356f565b517efa072b000000000000000000000000000000000000000000000000000000008152600060048201819052602482015260606044820152601760648201527f41413231206469646e2774207061792070726566756e64000000000000000000608482015260a490fd5b83517efa072b000000000000000000000000000000000000000000000000000000008152600060048201819052602482015260606044820152601660648201527f4141323320726576657274656420286f72204f4f472900000000000000000000608482015260a490fd5b613a23613249565b9081613a2f57506138a5565b5085517efa072b00000000000000000000000000000000000000000000000000000000815290819061092f90600483016132d6565b96506138ab9050565b613a8691925060203d81116121705761216181836103ab565b9038613889565b60209550613ac16109e86136f68c73ffffffffffffffffffffffffffffffffffffffff166000526000602052604060002090565b8b811115613ad85750856060835b97505050613836565b606087918d03613acf565b9a5050613aee611cc4565b6020815103613b1557610baf81602080613b0d945183010191016129f2565b998a90613813565b8a61092f89519283927efa072b00000000000000000000000000000000000000000000000000000000845260048401613313565b613b51613249565b80613b5c575061380e565b8261092f8c519283927efa072b00000000000000000000000000000000000000000000000000000000845260048401613313565b613813565b80610d99613ba292610397565b386137f5565b8480fd5b9091929360009460009384955a958151613bda815173ffffffffffffffffffffffffffffffffffffffff1690565b93604095613bf5613bed88840184611de5565b90878c614365565b60a083015173ffffffffffffffffffffffffffffffffffffffff169173ffffffffffffffffffffffffffffffffffffffff90600182841614613ef8575b8582819516159788613ea0575b60206060819798015191015192613c848c51988997889687947f0825d1fc000000000000000000000000000000000000000000000000000000008652600486016133a2565b03938a1690f1829181613e80575b50613e775750600190613ca361322b565b6308c379a014613e2d575b50613dc2575b613cc3575b505050505a900392565b613ced9073ffffffffffffffffffffffffffffffffffffffff166000526000602052604060002090565b92613d096109e885546dffffffffffffffffffffffffffff1690565b91828411613d5657505082547fffffffffffffffffffffffffffffffffffff0000000000000000000000000000169190036dffffffffffffffffffffffffffff1617905538808080613cb9565b517efa072b00000000000000000000000000000000000000000000000000000000815260048101919091526000602482015260606044820152601760648201527f41413231206469646e2774207061792070726566756e64000000000000000000608482015260a49150fd5b82517efa072b000000000000000000000000000000000000000000000000000000008152600481018690526000602482015260606044820152601660648201527f4141323320726576657274656420286f72204f4f472900000000000000000000608482015260a490fd5b613e35613249565b9081613e415750613cae565b61092f86899250519283927efa072b000000000000000000000000000000000000000000000000000000008452600484016132f5565b9750613cb49050565b613e9991925060203d81116121705761216181836103ab565b9038613c92565b60209550613ed46109e86136f68c73ffffffffffffffffffffffffffffffffffffffff166000526000602052604060002090565b8c80821115613eed575050856060835b97505050613c3f565b879160609103613ee4565b613f0143600052565b303b156140475788517fa47a3fbc00000000000000000000000000000000000000000000000000000000815273ffffffffffffffffffffffffffffffffffffffff8981166004830152851660248201528681604481305afa9081614034575b50613f7f576001613f6f61322b565b6308c379a014613feb575b613f84575b613c32565b91509b50613f90611cc4565b6020815103613fb757610baf81602080613faf945183010191016129f2565b9b8c91613c32565b8261092f89519283927efa072b00000000000000000000000000000000000000000000000000000000845260048401613313565b613ff3613249565b80613ffe5750613f7a565b8c61092f87928d519384937efa072b00000000000000000000000000000000000000000000000000000000855260048501613347565b80610d9961404192610397565b38613f60565b8580fd5b90918061405757505050565b81515173ffffffffffffffffffffffffffffffffffffffff1692833b6142f957606083510151604051907f570e1a36000000000000000000000000000000000000000000000000000000008252602082806140b6878760048401612a07565b0381600073ffffffffffffffffffffffffffffffffffffffff95867f00000000000000000000000000000000000000000000000000000000000000001690f19182156142ec575b6000926142cc575b5080821695861561426057168095036141f4573b156141885761192c6119267fd51a9c61267aa6196961883ecf5ff2da6619c37dac0fa92122513fb32c032d2d9361414f93612861565b602083810151935160a001516040805173ffffffffffffffffffffffffffffffffffffffff9485168152939091169183019190915290a3565b6040517efa072b000000000000000000000000000000000000000000000000000000008152600060048201819052602482015260606044820152602060648201527f4141313520696e6974436f6465206d757374206372656174652073656e646572608482015260a490fd5b6040517efa072b000000000000000000000000000000000000000000000000000000008152600060048201819052602482015260606044820152602060648201527f4141313420696e6974436f6465206d7573742072657475726e2073656e646572608482015260a490fd5b6040517efa072b000000000000000000000000000000000000000000000000000000008152600060048201819052602482015260606044820152601b60648201527f4141313320696e6974436f6465206661696c6564206f72204f4f470000000000608482015260a490fd5b6142e591925060203d81116111635761115481836103ab565b9038614105565b6142f4611fa0565b6140fd565b6040517efa072b000000000000000000000000000000000000000000000000000000008152600060048201819052602482015260606044820152601f60648201527f414131302073656e64657220616c726561647920636f6e737472756374656400608482015260a490fd5b92909181614374575b50505050565b82515173ffffffffffffffffffffffffffffffffffffffff1693843b61461f57606084510151604051907f570e1a36000000000000000000000000000000000000000000000000000000008252602082806143d3888860048401612a07565b0381600073ffffffffffffffffffffffffffffffffffffffff95867f00000000000000000000000000000000000000000000000000000000000000001690f1918215614612575b6000926145f2575b50808216968715614586571680960361451a573b156144ad575061192c6119267fd51a9c61267aa6196961883ecf5ff2da6619c37dac0fa92122513fb32c032d2d9361446d93612861565b602083810151935160a001516040805173ffffffffffffffffffffffffffffffffffffffff9485168152939091169183019190915290a33880808061436e565b6040517efa072b00000000000000000000000000000000000000000000000000000000815260048101919091526000602482015260606044820152602060648201527f4141313520696e6974436f6465206d757374206372656174652073656e646572608482015260a490fd5b6040517efa072b000000000000000000000000000000000000000000000000000000008152600481018390526000602482015260606044820152602060648201527f4141313420696e6974436f6465206d7573742072657475726e2073656e646572608482015260a490fd5b6040517efa072b000000000000000000000000000000000000000000000000000000008152600481018590526000602482015260606044820152601b60648201527f4141313320696e6974436f6465206661696c6564206f72204f4f470000000000608482015260a490fd5b61460b91925060203d81116111635761115481836103ab565b9038614422565b61461a611fa0565b61441a565b6040517efa072b00000000000000000000000000000000000000000000000000000000815260048101919091526000602482015260606044820152601f60648201527f414131302073656e64657220616c726561647920636f6e737472756374656400608482015260a490fd5b1561469357565b60646040517f08c379a000000000000000000000000000000000000000000000000000000000815260206004820152601f60248201527f4141343120746f6f206c6974746c6520766572696669636174696f6e476173006044820152fd5b919060408382031261031c57825167ffffffffffffffff811161031c5783019080601f8301121561031c578151916147288361043b565b9161473660405193846103ab565b8383526020848301011161031c5760209261475691848085019101611e84565b92015190565b61477460409295949395606083526060830190612419565b9460208201520152565b93919360609460009460009284516147bc60a08a830151926147a186851161468c565b015173ffffffffffffffffffffffffffffffffffffffff1690565b956147e78773ffffffffffffffffffffffffffffffffffffffff166000526000602052604060002090565b6148026109e882546dffffffffffffffffffffffffffff1690565b8681106149e7579260208795936148668a9896946dffffffffffffffffffffffffffff61489f9b8b9703166dffffffffffffffffffffffffffff167fffffffffffffffffffffffffffffffffffff0000000000000000000000000000825416179055565b015192604051978896879586937ff465c77e0000000000000000000000000000000000000000000000000000000085526004850161475c565b039373ffffffffffffffffffffffffffffffffffffffff8a169103f19081839184936149c1575b506149b95750506001906148d861322b565b6308c379a01461496e575b506148eb5750565b6040517efa072b0000000000000000000000000000000000000000000000000000000081526000600482015273ffffffffffffffffffffffffffffffffffffffff91909116602482015260606044820152601660648201527f4141333320726576657274656420286f72204f4f472900000000000000000000608482015260a490fd5b614976613249565b908161498257506148e3565b83905061092f6040519283927efa072b00000000000000000000000000000000000000000000000000000000845260048401613313565b955093505050565b9092506149e091503d8085833e6149d881836103ab565b8101906146f1565b91386148c6565b6040517efa072b0000000000000000000000000000000000000000000000000000000081526000600482015273ffffffffffffffffffffffffffffffffffffffff8a16602482015260606044820152601e60648201527f41413331207061796d6173746572206465706f73697420746f6f206c6f770000608482015260a490fd5b909492946060956000956000928551614a8c60a08b830151926147a186851161468c565b96614ab78873ffffffffffffffffffffffffffffffffffffffff166000526000602052604060002090565b614ad26109e882546dffffffffffffffffffffffffffff1690565b868110614c79579260208795936148668a9896946dffffffffffffffffffffffffffff614b369b8b9703166dffffffffffffffffffffffffffff167fffffffffffffffffffffffffffffffffffff0000000000000000000000000000825416179055565b039373ffffffffffffffffffffffffffffffffffffffff8b169103f1908183918493614c5b575b50614c52575050600190614b6f61322b565b6308c379a014614c07575b50614b83575050565b6040517efa072b000000000000000000000000000000000000000000000000000000008152600481019190915273ffffffffffffffffffffffffffffffffffffffff91909116602482015260606044820152601660648201527f4141333320726576657274656420286f72204f4f472900000000000000000000608482015260a490fd5b614c0f613249565b9081614c1b5750614b7a565b61092f9250506040519384937efa072b00000000000000000000000000000000000000000000000000000000855260048501613347565b96509450505050565b909250614c7291503d8085833e6149d881836103ab565b9138614b5d565b6040517efa072b000000000000000000000000000000000000000000000000000000008152600481018a905273ffffffffffffffffffffffffffffffffffffffff8b16602482015260606044820152601e60648201527f41413331207061796d6173746572206465706f73697420746f6f206c6f770000608482015260a490fd5b60031115614d0457565b7f4e487b7100000000000000000000000000000000000000000000000000000000600052602160045260246000fd5b929190614d5160409160028652606060208701526060860190611ea7565b930152565b939291906003811015614d0457604091614d51918652606060208701526060860190611ea7565b909291925a916000918151614d9181615651565b9260a0820195614db5875173ffffffffffffffffffffffffffffffffffffffff1690565b9873ffffffffffffffffffffffffffffffffffffffff94858b1680614f35575050835173ffffffffffffffffffffffffffffffffffffffff16915b5a9003019485029860408301908a825110614eb257507f49628fd1471006c1482da88028e9ce4dbb080b815c9b0344d39e5a8e6ec1419f949392614e3d614ead938c6020945103906156d7565b015194896020614e7f614e64865173ffffffffffffffffffffffffffffffffffffffff1690565b9a5173ffffffffffffffffffffffffffffffffffffffff1690565b9401519785604051968796169a16988590949392606092608083019683521515602083015260408201520152565b0390a4565b6040517efa072b0000000000000000000000000000000000000000000000000000000081526000600482015273ffffffffffffffffffffffffffffffffffffffff91909116602482015260606044820152601f60648201527f4135312070726566756e642062656c6f772061637475616c476173436f737400608482015260a490fd5b8b93918051614f46575b5050614df0565b606087015160009a509091803b156150aa57918a918a83614f99956040518097819682957fa9a234090000000000000000000000000000000000000000000000000000000084528c029060048401614d33565b0393f19081615097575b50615092576001614fb261322b565b6308c379a01461504a575b614fc9575b3880614f3f565b6040517efa072b0000000000000000000000000000000000000000000000000000000081526000600482015273ffffffffffffffffffffffffffffffffffffffff8c16602482015260606044820152601160648201527f41353020706f73744f7020726576657274000000000000000000000000000000608482015260a490fd5b615052613249565b8061505d5750614fbd565b8c61092f6040519283927efa072b00000000000000000000000000000000000000000000000000000000845260048401613313565b614fc2565b80610d996150a492610397565b38614fa3565b8a80fd5b919392935a906000928051906150c382615651565b9360a08301966150e7885173ffffffffffffffffffffffffffffffffffffffff1690565b9973ffffffffffffffffffffffffffffffffffffffff95868c16806151f4575050845173ffffffffffffffffffffffffffffffffffffffff16925b5a9003019586029960408401918b8351106151705750507f49628fd1471006c1482da88028e9ce4dbb080b815c9b0344d39e5a8e6ec1419f949392614e3d614ead938c6020945103906156d7565b6040517efa072b000000000000000000000000000000000000000000000000000000008152600481019190915273ffffffffffffffffffffffffffffffffffffffff91909116602482015260606044820152601f60648201527f4135312070726566756e642062656c6f772061637475616c476173436f737400608482015260a490fd5b8c94918051615205575b5050615122565b606088015160009b509091803b1561536b57918b918b83615258956040518097819682957fa9a234090000000000000000000000000000000000000000000000000000000084528c029060048401614d33565b0393f19081615358575b5061535357600161527161322b565b6308c379a014615309575b615288575b38806151fe565b6040517efa072b0000000000000000000000000000000000000000000000000000000081526004810184905273ffffffffffffffffffffffffffffffffffffffff8d16602482015260606044820152601160648201527f41353020706f73744f7020726576657274000000000000000000000000000000608482015260a490fd5b615311613249565b8061531c575061527c565b8461092f8f926040519384937efa072b00000000000000000000000000000000000000000000000000000000855260048501613347565b615281565b80610d9961536592610397565b38615262565b8b80fd5b909392935a92815161538081615651565b9260a08201956153a4875173ffffffffffffffffffffffffffffffffffffffff1690565b9873ffffffffffffffffffffffffffffffffffffffff94858b169081615489575050835173ffffffffffffffffffffffffffffffffffffffff16915b5a9003019485029860408301908a825110614eb257507f49628fd1471006c1482da88028e9ce4dbb080b815c9b0344d39e5a8e6ec1419f94939261542d614ead938c6020945103906156d7565b61543688614cfa565b01519489602061545d614e64865173ffffffffffffffffffffffffffffffffffffffff1690565b940151604080519182529815602082015297880152606087015290821695909116939081906080820190565b8b9391815161549a575b50506153e0565b8884026154a68b614cfa565b60028b14615531576060880151823b1561031c576154f993600080948e604051978896879586937fa9a2340900000000000000000000000000000000000000000000000000000000855260048501614d56565b0393f18015615524575b615511575b505b3880615493565b80610d9961551e92610397565b38615508565b61552c611fa0565b615503565b6060880151823b1561031c5761557c93600080948e604051978896879586937fa9a2340900000000000000000000000000000000000000000000000000000000855260048501614d56565b0393f1908161563e575b5061563957600161559561322b565b6308c379a014615626575b1561550a576040517efa072b0000000000000000000000000000000000000000000000000000000081526000600482015273ffffffffffffffffffffffffffffffffffffffff8c16602482015260606044820152601160648201527f41353020706f73744f7020726576657274000000000000000000000000000000608482015260a490fd5b61562e613249565b8061505d57506155a0565b61550a565b80610d9961564b92610397565b38615586565b60e060c082015191015180821461567557480180821015615670575090565b905090565b5090565b9073ffffffffffffffffffffffffffffffffffffffff615697612829565b9216600052600060205263ffffffff600160406000206dffffffffffffffffffffffffffff815460781c1685520154166020830152565b6103f9336157c8565b73ffffffffffffffffffffffffffffffffffffffff16600052600060205260406000206dffffffffffffffffffffffffffff808254169283018093116157bb575b80831161575d576103f992166dffffffffffffffffffffffffffff167fffffffffffffffffffffffffffffffffffff0000000000000000000000000000825416179055565b60646040517f08c379a000000000000000000000000000000000000000000000000000000000815260206004820152601060248201527f6465706f736974206f766572666c6f77000000000000000000000000000000006044820152fd5b6157c3611fad565b615718565b73ffffffffffffffffffffffffffffffffffffffff906157e834826156d7565b168060005260006020527f2da466a7b24304f47e87fa2e1e5a81b9831ce54fec19055ce277ca2f39ba42c460206dffffffffffffffffffffffffffff60406000205416604051908152a2565b1561583b57565b60646040517f08c379a000000000000000000000000000000000000000000000000000000000815260206004820152601a60248201527f6d757374207370656369667920756e7374616b652064656c61790000000000006044820152fd5b156158a057565b60646040517f08c379a000000000000000000000000000000000000000000000000000000000815260206004820152601c60248201527f63616e6e6f7420646563726561736520756e7374616b652074696d65000000006044820152fd5b1561590557565b60646040517f08c379a000000000000000000000000000000000000000000000000000000000815260206004820152601260248201527f6e6f207374616b652073706563696669656400000000000000000000000000006044820152fd5b1561596a57565b60646040517f08c379a000000000000000000000000000000000000000000000000000000000815260206004820152600e60248201527f7374616b65206f766572666c6f770000000000000000000000000000000000006044820152fd5b9067ffffffffffffffff608060016103f994615a2a6dffffffffffffffffffffffffffff86511682906dffffffffffffffffffffffffffff167fffffffffffffffffffffffffffffffffffff0000000000000000000000000000825416179055565b602085015115156eff000000000000000000000000000082549160701b16807fffffffffffffffffffffffffffffffffff00ffffffffffffffffffffffffffff83161783557fffffff000000000000000000000000000000ffffffffffffffffffffffffffff7cffffffffffffffffffffffffffff000000000000000000000000000000604089015160781b16921617178155019263ffffffff6060820151167fffffffffffffffffffffffffffffffffffffffffffffffffffffffff000000008554161784550151167fffffffffffffffffffffffffffffffffffffffff0000000000000000ffffffff6bffffffffffffffff0000000083549260201b169116179055565b15615b3757565b60646040517f08c379a000000000000000000000000000000000000000000000000000000000815260206004820152601160248201527f616c726561647920756e7374616b696e670000000000000000000000000000006044820152fd5b91909167ffffffffffffffff80809416911601918211611fea57565b15615bb857565b60646040517f08c379a000000000000000000000000000000000000000000000000000000000815260206004820152601460248201527f4e6f207374616b6520746f2077697468647261770000000000000000000000006044820152fd5b15615c1d57565b60646040517f08c379a000000000000000000000000000000000000000000000000000000000815260206004820152601d60248201527f6d7573742063616c6c20756e6c6f636b5374616b6528292066697273740000006044820152fd5b15615c8257565b60646040517f08c379a000000000000000000000000000000000000000000000000000000000815260206004820152601b60248201527f5374616b65207769746864726177616c206973206e6f742064756500000000006044820152fd5b15615ce757565b60646040517f08c379a000000000000000000000000000000000000000000000000000000000815260206004820152601860248201527f6661696c656420746f207769746864726177207374616b6500000000000000006044820152fd5b15615d4c57565b60646040517f08c379a000000000000000000000000000000000000000000000000000000000815260206004820152601260248201527f6661696c656420746f20776974686472617700000000000000000000000000006044820152fd5b9060009283809360208451940192f190565b3d610800808211615de3575b50604051906020818301016040528082526000602083013e90565b905038615dc856fea2646970667358221220beb3d44700409b50214c2d279edb3ce2b78bbafc7bfbc8b378ef0e9141812bb464736f6c634300081100336080806040523461001657610210908161001c8239f35b600080fdfe6080604052600436101561001257600080fd5b6000803560e01c63570e1a361461002857600080fd5b346100c95760207ffffffffffffffffffffffffffffffffffffffffffffffffffffffffffffffffc3601126100c95760043567ffffffffffffffff918282116100c957366023830112156100c95781600401359283116100c95736602484840101116100c9576100c561009e84602485016100fc565b60405173ffffffffffffffffffffffffffffffffffffffff90911681529081906020820190565b0390f35b80fd5b507f4e487b7100000000000000000000000000000000000000000000000000000000600052604160045260246000fd5b90806014116101bb5767ffffffffffffffff917fffffffffffffffffffffffffffffffffffffffffffffffffffffffffffffffec82018381116101cd575b604051937fffffffffffffffffffffffffffffffffffffffffffffffffffffffffffffffe0603f81600b8701160116850190858210908211176101c0575b604052808452602084019036848401116101bb576020946000600c819682946014880187378301015251923560601c5af19060005191156101b557565b60009150565b600080fd5b6101c86100cc565b610178565b6101d56100cc565b61013a56fea26469706673582212202f6aa68977bad9c275e51acad9826417c06681f8af8a6c6afc77efd76d949f2964736f6c63430008110033",
  "linkReferences": {},
  "deployedLinkReferences": {}
}